<html>
<head>
<title>How to Create a Raw Bitcoin Transaction — Step by Step</title>
<link href="../Styles/Style.css" type="text/css" rel="stylesheet"/>
</head>
<body>
<h1 class="translated">如何一步一步地创建原始比特币交易</h1>
<blockquote>原文：<a href="https://medium.com/coinmonks/how-to-create-a-raw-bitcoin-transaction-step-by-step-239b888e87f2?source=collection_archive---------0-----------------------#2018-08-14">https://medium.com/coinmonks/how-to-create-a-raw-bitcoin-transaction-step-by-step-239b888e87f2?source=collection_archive---------0-----------------------#2018-08-14</a></blockquote><div><div class="ef hh hi hj hk hl"/><div class="hm hn ho hp hq"><div class=""/><figure class="fi fk ir is it iu fe ff paragraph-image"><div role="button" tabindex="0" class="iv iw di ix bf iy"><div class="fe ff iq"><img src="../Images/67c8fcd059aa92ab4a00e0677b25a949.png" data-original-src="https://miro.medium.com/v2/resize:fit:1400/format:webp/0*ZFMkxOKGr6skY7pG.jpg"/></div></div><figcaption class="jb jc fg fe ff jd je bd b be z ek">bitcoinchaser.com</figcaption></figure></div><div class="ab cl jf jg hb jh" role="separator"><span class="ji bw bk jj jk jl"/><span class="ji bw bk jj jk jl"/><span class="ji bw bk jj jk"/></div><div class="hm hn ho hp hq"><h1 id="81ad" class="jm jn ht bd jo jp jq jr js jt ju jv jw jx jy jz ka kb kc kd ke kf kg kh ki kj dt translated">介绍</h1><p id="5ee7" class="pw-post-body-paragraph kk kl ht km b kn ko kp kq kr ks kt ku kv kw kx ky kz la lb lc ld le lf lg lh hm dt translated">什么构成了<a class="ae li" href="https://blog.coincodecap.com/a-candid-explanation-of-bitcoin/" rel="noopener ugc nofollow" target="_blank">比特币</a>交易？嗯，比特币交易不止一种，因此，比特币可以发送到多种类型的地址(同一个人的密钥对)。</p><p id="4e34" class="pw-post-body-paragraph kk kl ht km b kn lj kp kq kr lk kt ku kv ll kx ky kz lm lb lc ld ln lf lg lh hm dt translated">比特币核心上当前的默认地址类型是一个<code class="eh lo lp lq lr b">P2SH-P2WPKH</code>，它是一个包裹在付费脚本哈希中的付费见证公钥哈希。欲了解更多信息，请参阅之前的文章:<a class="ae li" rel="noopener" href="/coinmonks/how-to-generate-a-bitcoin-address-step-by-step-9d7fcbf1ad0b">如何生成比特币地址——一步一步来</a>。</p><blockquote class="ls lt lu"><p id="7d32" class="kk kl lv km b kn lj kp kq kr lk kt ku lw ll kx ky lx lm lb lc ly ln lf lg lh hm dt translated">了解更多信息，并加入我的课程，学习如何<a class="ae li" href="https://www.udemy.com/course/create-your-own-blockchain/" rel="noopener ugc nofollow" target="_blank">成为一名比特币+区块链程序员</a>。</p></blockquote><blockquote class="lz"><p id="35f1" class="ma mb ht bd mc md me mf mg mh mi lh ek translated"><a class="ae li" href="https://coincodecap.com" rel="noopener ugc nofollow" target="_blank">发现和评论最好的比特币产品</a></p></blockquote><h1 id="86e6" class="jm jn ht bd jo jp mj jr js jt mk jv jw jx ml jz ka kb mm kd ke kf mn kh ki kj dt translated">交易格式</h1><p id="d65c" class="pw-post-body-paragraph kk kl ht km b kn ko kp kq kr ks kt ku kv kw kx ky kz la lb lc ld le lf lg lh hm dt translated">让我们来看一个来自我的私人比特币网络的交易:</p><pre class="mo mp mq mr fq ms lr mt mu aw mv dt"><span id="3bab" class="mw jn ht lr b fv mx my l mz na">0200000000010111b6e0460bb810b05744f8d38262f95fbab02b168b070598a6f31fad438fced4000000001716001427c106013c0042da165c082b3870c31fb3ab4683feffffff0200ca9a3b0000000017a914d8b6fcc85a383261df05423ddf068a8987bf0287873067a3fa0100000017a914d5df0b9ca6c0e1ba60a9ff29359d2600d9c6659d870247304402203b85cb05b43cc68df72e2e54c6cb508aa324a5de0c53f1bbfe997cbd7509774d022041e1b1823bdaddcd6581d7cde6e6a4c4dbef483e42e59e04dbacbaf537c3e3e8012103fbbdb3b3fc3abbbd983b20a557445fb041d6f21cc5977d2121971cb1ce5298978c000000</span></pre><p id="95f8" class="pw-post-body-paragraph kk kl ht km b kn lj kp kq kr lk kt ku kv ll kx ky kz lm lb lc ld ln lf lg lh hm dt translated">这是显而易见的，明白了吗？</p><p id="a659" class="pw-post-body-paragraph kk kl ht km b kn lj kp kq kr lk kt ku kv ll kx ky kz lm lb lc ld ln lf lg lh hm dt translated">如果你还在疑惑，我们来分解一下(从左到右):</p><pre class="mo mp mq mr fq ms lr mt mu aw mv dt"><span id="b724" class="mw jn ht lr b fv mx my l mz na"><strong class="lr hu">Version</strong>: 02000000<br/><strong class="lr hu">Flag: </strong>0001 (if present, indicates segwit)<strong class="lr hu"><br/>Input Count: </strong>01<br/><strong class="lr hu">Input 1 Previous Output Hash</strong>: 11b6e0460bb810b05744f8d38262f95fbab02b168b070598a6f31fad438fced4<br/><strong class="lr hu">Input 1 Previous Output Index</strong>: 00000000<br/><strong class="lr hu">Input 1 script length</strong>: 0x17 (23 bytes)<br/><strong class="lr hu">Input 1 signature script</strong>: 16001427c106013c0042da165c082b3870c31fb3ab4683<br/><strong class="lr hu">Input 1 sequence</strong>: feffffff<br/><strong class="lr hu">Output Count: </strong>02<br/><strong class="lr hu">Output 1 Value: </strong>00ca9a3b00000000 (1B satoshis / 10 BTC)<br/><strong class="lr hu">Output 1 public key script length: </strong>0x17 (23 bytes)<br/><strong class="lr hu">Output 1 public key script</strong>: a914d8b6fcc85a383261df05423ddf068a8987bf028787<br/><strong class="lr hu">Output 2 Value</strong>: 3067a3fa01000000 (8499980080 sats / 84.9998008 BTC)<br/><strong class="lr hu">Output 2 public key script length</strong>: 0x17 (23 bytes)<br/><strong class="lr hu">Output 2 public key script</strong>: a914d5df0b9ca6c0e1ba60a9ff29359d2600d9c6659d87<br/><strong class="lr hu">Witness Count:</strong> 02<br/><strong class="lr hu">Witness 1 length: </strong>0x47 (71 bytes)<br/><strong class="lr hu">Witness 1: </strong>304402203b85cb05b43cc68df72e2e54c6cb508aa324a5de0c53f1bbfe997cbd7509774d022041e1b1823bdaddcd6581d7cde6e6a4c4dbef483e42e59e04dbacbaf537c3e3e801<br/><strong class="lr hu">Witness 2 length:</strong> 0x21 (33 bytes)<strong class="lr hu"><br/>Witness 2: </strong>03fbbdb3b3fc3abbbd983b20a557445fb041d6f21cc5977d2121971cb1ce529897<br/><strong class="lr hu">Locktime:</strong> 8c000000 (block 140)</span></pre><p id="535b" class="pw-post-body-paragraph kk kl ht km b kn lj kp kq kr lk kt ku kv ll kx ky kz lm lb lc ld ln lf lg lh hm dt translated"><strong class="km hu">注:</strong>所有数值均为<a class="ae li" href="https://en.wikipedia.org/wiki/Endianness#Little-endian" rel="noopener ugc nofollow" target="_blank">小端</a>。以下是所有字段的描述:</p><figure class="mo mp mq mr fq iu fe ff paragraph-image"><div role="button" tabindex="0" class="iv iw di ix bf iy"><div class="fe ff nb"><img src="../Images/7ebdb26fba1ebb5eafd09576f6af1fff.png" data-original-src="https://miro.medium.com/v2/resize:fit:1400/format:webp/1*BMwZ3vTqo6lZffflf94cow.png"/></div></div><figcaption class="jb jc fg fe ff jd je bd b be z ek">Transaction Properties</figcaption></figure><h1 id="3956" class="jm jn ht bd jo jp mj jr js jt mk jv jw jx nc jz ka kb nd kd ke kf ne kh ki kj dt translated">创建原始交易</h1><p id="deb9" class="pw-post-body-paragraph kk kl ht km b kn ko kp kq kr ks kt ku kv kw kx ky kz la lb lc ld le lf lg lh hm dt translated">让我们从头开始创建一个事务！让我们使用上述交易的<strong class="km hu">输出1 </strong>:</p><pre class="mo mp mq mr fq ms lr mt mu aw mv dt"><span id="ba2a" class="mw jn ht lr b fv mx my l mz na">$ bitcoin-cli -regtest listunspent<br/>[<br/>  {<br/>    "txid": "375e1622b2690e395df21b33192bad06d2706c139692d43ea84d38df3d183313",<br/>    "vout": 0,<br/>    "address": "2ND179ug8wYvtH5GENkcMEUyXnqhNh7BgkB",<br/>    "account": "test",<br/>    "redeemScript": "0014b93f973eb2bf0b614bddc0f47286788c98c535b4",<br/>    "scriptPubKey": "a914d8b6fcc85a383261df05423ddf068a8987bf028787",<br/>    "amount": 10.00000000,<br/>    "confirmations": 1,<br/>    "spendable": true,<br/>    "solvable": true,<br/>    "safe": true<br/>  },<br/>...</span></pre><h2 id="de4b" class="mw jn ht bd jo nf ng nh js ni nj nk jw kv nl nm ka kz nn no ke ld np nq ki nr dt translated">ScriptSig</h2><p id="9e8d" class="pw-post-body-paragraph kk kl ht km b kn ko kp kq kr ks kt ku kv kw kx ky kz la lb lc ld le lf lg lh hm dt translated">注意<code class="eh lo lp lq lr b">scriptPubkey</code>的格式是一个<code class="eh lo lp lq lr b">P2SH</code>:</p><p id="c13e" class="pw-post-body-paragraph kk kl ht km b kn lj kp kq kr lk kt ku kv ll kx ky kz lm lb lc ld ln lf lg lh hm dt translated"><code class="eh lo lp lq lr b">OP_HASH160 0x14 &lt;script hash&gt; OP_EQUAL</code></p><p id="a2e5" class="pw-post-body-paragraph kk kl ht km b kn lj kp kq kr lk kt ku kv ll kx ky kz lm lb lc ld ln lf lg lh hm dt translated">为了使用这个输出，我们必须提供散列到<code class="eh lo lp lq lr b">&lt;script hash&gt;</code>中的值的脚本，以便<code class="eh lo lp lq lr b">OP_EQUAL</code>成功。我们的scriptSig需要采用以下形式:</p><p id="5efe" class="pw-post-body-paragraph kk kl ht km b kn lj kp kq kr lk kt ku kv ll kx ky kz lm lb lc ld ln lf lg lh hm dt translated"><code class="eh lo lp lq lr b">&lt;0 0x14 &lt;20-byte-key-hash&gt;&gt;</code></p><p id="8ed9" class="pw-post-body-paragraph kk kl ht km b kn lj kp kq kr lk kt ku kv ll kx ky kz lm lb lc ld ln lf lg lh hm dt translated">但是，由于这是一个见证事务，事务的见证部分还包括:<code class="eh lo lp lq lr b">&lt;signature&gt; &lt;pubkey&gt;</code>，将使用<code class="eh lo lp lq lr b">&lt;signature&gt; &lt;pubkey&gt; CHECKSIG</code>对其进行评估。</p><p id="beff" class="pw-post-body-paragraph kk kl ht km b kn lj kp kq kr lk kt ku kv ll kx ky kz lm lb lc ld ln lf lg lh hm dt translated">为了得到<code class="eh lo lp lq lr b">20-byte-key-hash</code>,我们需要知道我们的公钥。因为我拥有这个地址，所以我可以获得我的地址的公钥:</p><pre class="mo mp mq mr fq ms lr mt mu aw mv dt"><span id="e847" class="mw jn ht lr b fv mx my l mz na">$ bitcoin-cli -regtest validateaddress 2ND179ug8wYvtH5GENkcMEUyXnqhNh7BgkB<br/>{<br/>  ...<br/>    "pubkey": "0223bec70d670d29a30d9bcee197910e37cf2a10f0dc3c5ac44d865aec0d7052fb",<br/>    ...</span><span id="b9f2" class="mw jn ht lr b fv ns my l mz na">"embedded": {<br/>    ...<br/>    "witness_program": "b93f973eb2bf0b614bddc0f47286788c98c535b4"<br/>    ...<br/>}</span><span id="8413" class="mw jn ht lr b fv ns my l mz na">Or you can calculate it manually using openssl</span><span id="07ac" class="mw jn ht lr b fv ns my l mz na">$ printf "0223bec70d670d29a30d9bcee197910e37cf2a10f0dc3c5ac44d865aec0d7052fb" | xxd -r -p | openssl sha256<br/>(stdin)= cb84d0fe1066b24f7af055867a5e910577511ce03ebe9bf3b42d4810f437da03</span><span id="85dc" class="mw jn ht lr b fv ns my l mz na">$ printf "cb84d0fe1066b24f7af055867a5e910577511ce03ebe9bf3b42d4810f437da03" | xxd -r -p | openssl ripemd160<br/>(stdin)= b93f973eb2bf0b614bddc0f47286788c98c535b4</span></pre><p id="79f0" class="pw-post-body-paragraph kk kl ht km b kn lj kp kq kr lk kt ku kv ll kx ky kz lm lb lc ld ln lf lg lh hm dt translated"><strong class="km hu">备注:</strong></p><ol class=""><li id="717a" class="nt nu ht km b kn lj kr lk kv nv kz nw ld nx lh ny nz oa ob dt translated"><code class="eh lo lp lq lr b">&lt;ef&gt;</code>和<code class="eh lo lp lq lr b">&lt;0&gt;</code>表示testnet和一个压缩的key，所以去掉了。</li></ol><p id="f693" class="pw-post-body-paragraph kk kl ht km b kn lj kp kq kr lk kt ku kv ll kx ky kz lm lb lc ld ln lf lg lh hm dt translated">请注意，最终的密钥哈希与上面输出中的redeemScript相匹配。我们脚本签名变成:</p><pre class="mo mp mq mr fq ms lr mt mu aw mv dt"><span id="7f76" class="mw jn ht lr b fv mx my l mz na">0014b93f973eb2bf0b614bddc0f47286788c98c535b4</span></pre><h2 id="bc9d" class="mw jn ht bd jo nf ng nh js ni nj nk jw kv nl nm ka kz nn no ke ld np nq ki nr dt translated">输出</h2><p id="10f6" class="pw-post-body-paragraph kk kl ht km b kn ko kp kq kr ks kt ku kv kw kx ky kz la lb lc ld le lf lg lh hm dt translated">让我们发送1 BTC到地址:</p><pre class="mo mp mq mr fq ms lr mt mu aw mv dt"><span id="85d4" class="mw jn ht lr b fv mx my l mz na">2N8bXfrWTzqZoV89dosge2JxvE38VnHurqD</span></pre><p id="9bd6" class="pw-post-body-paragraph kk kl ht km b kn lj kp kq kr lk kt ku kv ll kx ky kz lm lb lc ld ln lf lg lh hm dt translated"><code class="eh lo lp lq lr b">1 BTC = 100,000,000 satoshi</code>所以<strong class="km hu">输出1值</strong> : <code class="eh lo lp lq lr b">00e1f50500000000</code>(记住，小端)。</p><p id="6139" class="pw-post-body-paragraph kk kl ht km b kn lj kp kq kr lk kt ku kv ll kx ky kz lm lb lc ld ln lf lg lh hm dt translated">我们可以通过解码并删除testnet前缀<code class="eh lo lp lq lr b">0xc4</code>从地址中获得脚本散列:</p><pre class="mo mp mq mr fq ms lr mt mu aw mv dt"><span id="1cfa" class="mw jn ht lr b fv mx my l mz na">$ printf "2N8bXfrWTzqZoV89dosge2JxvE38VnHurqD" | base58 -dc | xxd -p<br/>c4a860f76561c85551594c18eecceffaee8c4822d7</span></pre><p id="75ff" class="pw-post-body-paragraph kk kl ht km b kn lj kp kq kr lk kt ku kv ll kx ky kz lm lb lc ld ln lf lg lh hm dt translated">记住脚本是<code class="eh lo lp lq lr b">OP_HASH160 0x14 &lt;script hash&gt; OP_EQUAL</code>，而<code class="eh lo lp lq lr b">c4 </code>只是我们需要去掉的一个地址前缀，那么我们的<strong class="km hu">输出1公钥脚本</strong>就变成:<code class="eh lo lp lq lr b">a914a860f76561c85551594c18eecceffaee8c4822d787</code>。</p><p id="1486" class="pw-post-body-paragraph kk kl ht km b kn lj kp kq kr lk kt ku kv ll kx ky kz lm lb lc ld ln lf lg lh hm dt translated">我们将对输出2做同样的事情，它代表我们的<code class="eh lo lp lq lr b">9 BTC</code>变化(回到原始地址)减去<code class="eh lo lp lq lr b">0.0001 BTC</code>交易费。<strong class="km hu">输出2值:</strong><code class="eh lo lp lq lr b">F0C1A43500000000</code>(89990000 Satoshi)。<strong class="km hu">输出2公钥脚本</strong>为<code class="eh lo lp lq lr b">a914d8b6fcc85a383261df05423ddf068a8987bf028787</code>。</p><h2 id="94e0" class="mw jn ht bd jo nf ng nh js ni nj nk jw kv nl nm ka kz nn no ke ld np nq ki nr dt translated">签名和证人</h2><p id="cbd5" class="pw-post-body-paragraph kk kl ht km b kn ko kp kq kr ks kt ku kv kw kx ky kz la lb lc ld le lf lg lh hm dt translated">现在是我们的签名和公钥。我们已经有了以前的公钥:</p><pre class="mo mp mq mr fq ms lr mt mu aw mv dt"><span id="3fd6" class="mw jn ht lr b fv mx my l mz na">0223bec70d670d29a30d9bcee197910e37cf2a10f0dc3c5ac44d865aec0d7052fb</span></pre><p id="8d92" class="pw-post-body-paragraph kk kl ht km b kn lj kp kq kr lk kt ku kv ll kx ky kz lm lb lc ld ln lf lg lh hm dt translated">为了签名，我们首先将其序列化，但是没有了<strong class="km hu">标志</strong>，并且<strong class="km hu"> scriptSig </strong>变成了<code class="eh lo lp lq lr b">00</code>:</p><pre class="mo mp mq mr fq ms lr mt mu aw mv dt"><span id="b0b9" class="mw jn ht lr b fv mx my l mz na"><strong class="lr hu">Version</strong>: 02000000<br/><strong class="lr hu">Flag:<br/>Input Count: </strong>01<br/><strong class="lr hu">Input 1 Previous Output Hash</strong>: 1333183ddf384da83ed49296136c70d206ad2b19331bf25d390e69b222165e37<br/><strong class="lr hu">Input 1 Previous Output Index</strong>: 00000000<br/><strong class="lr hu">Input 1 script length</strong>: 00 (empty for now)<br/><strong class="lr hu">Input 1 scriptSig</strong>: <br/><strong class="lr hu">Input 1 sequence</strong>: feffffff<br/><strong class="lr hu">Output Count: </strong>02<br/><strong class="lr hu">Output 1 Value: </strong>00e1f50500000000<!-- --> (100M satoshis / 1 BTC)<br/><strong class="lr hu">Output 1 public key script length: </strong>0x17 (23 bytes)<br/><strong class="lr hu">Output 1 public key script</strong>: <!-- -->a914a860f76561c85551594c18eecceffaee8c4822d787<br/><strong class="lr hu">Output 2 Value</strong>: <!-- -->F0C1A43500000000<!-- --> (899990000 sats / 8.9999 BTC)<br/><strong class="lr hu">Output 2 public key script length</strong>: 0x17 (23 bytes)<br/><strong class="lr hu">Output 2 public key script</strong>: <!-- -->a914d8b6fcc85a383261df05423ddf068a8987bf028787<br/><strong class="lr hu">Witness Count:</strong><br/><strong class="lr hu">Witness 1 length:</strong><br/><strong class="lr hu">Witness 1: </strong><br/><strong class="lr hu">Witness 2 length:<br/>Witness 2: </strong><br/><strong class="lr hu">Locktime:</strong> 8c000000 (block 140)</span></pre><p id="fe30" class="pw-post-body-paragraph kk kl ht km b kn lj kp kq kr lk kt ku kv ll kx ky kz lm lb lc ld ln lf lg lh hm dt translated">序列化后，这将成为:</p><pre class="mo mp mq mr fq ms lr mt mu aw mv dt"><span id="81e3" class="mw jn ht lr b fv mx my l mz na">02000000011333183ddf384da83ed49296136c70d206ad2b19331bf25d390e69b222165e370000000000feffffff0200e1f5050000000017a914a860f76561c85551594c18eecceffaee8c4822d787f0c1a4350000000017a914d8b6fcc85a383261df05423ddf068a8987bf02878700000000</span></pre><p id="1b16" class="pw-post-body-paragraph kk kl ht km b kn lj kp kq kr lk kt ku kv ll kx ky kz lm lb lc ld ln lf lg lh hm dt translated">为了签名，我们将使用比特币核心RPC调用<code class="eh lo lp lq lr b">signrawtransaction</code>，它将为我们的输入创建<strong class="km hu"> scriptSig </strong>以及<strong class="km hu">见证</strong>并填充<strong class="km hu">标志</strong>。</p><pre class="mo mp mq mr fq ms lr mt mu aw mv dt"><span id="5b1c" class="mw jn ht lr b fv mx my l mz na">$ bitcoin-cli -regtest signrawtransaction 02000000011333183ddf384da83ed49296136c70d206ad2b19331bf25d390e69b222165e370000000000feffffff0200e1f5050000000017a914a860f76561c85551594c18eecceffaee8c4822d787F0C1A4350000000017a914d8b6fcc85a383261df05423ddf068a8987bf0287878c000000</span><span id="0a14" class="mw jn ht lr b fv ns my l mz na">{<br/>  "hex": "020000000001011333183ddf384da83ed49296136c70d206ad2b19331bf25d390e69b222165e370000000017160014b93f973eb2bf0b614bddc0f47286788c98c535b4feffffff0200e1f5050000000017a914a860f76561c85551594c18eecceffaee8c4822d787f0c1a4350000000017a914d8b6fcc85a383261df05423ddf068a8987bf028787024730440220434caf5bb442cb6a251e8bce0ec493f9a1a9c4423bcfc029e542b0e8a89d1b3f022011090d4e98f79c62b188245a4aa4eb77e912bfd57e0a9b9a1c5e65f2b39f3ab401210223bec70d670d29a30d9bcee197910e37cf2a10f0dc3c5ac44d865aec0d7052fb8c000000",<br/>  "complete": true<br/>}</span></pre><p id="d750" class="pw-post-body-paragraph kk kl ht km b kn lj kp kq kr lk kt ku kv ll kx ky kz lm lb lc ld ln lf lg lh hm dt translated">最后，我们签署的事务看起来像这样:</p><pre class="mo mp mq mr fq ms lr mt mu aw mv dt"><span id="90fe" class="mw jn ht lr b fv mx my l mz na"><strong class="lr hu">Version</strong>: 02000000<br/><strong class="lr hu">Flag: </strong>0001 (indicates segwit)<strong class="lr hu"><br/>Input Count: </strong>01<br/><strong class="lr hu">Input 1 Previous Output Hash</strong>: 1333183ddf384da83ed49296136c70d206ad2b19331bf25d390e69b222165e37<br/><strong class="lr hu">Input 1 Previous Output Index</strong>: 00000000<br/><strong class="lr hu">Input 1 script length</strong>: 0x17 (23 bytes)<br/><strong class="lr hu">Input 1 scriptSig</strong>: 160014b93f973eb2bf0b614bddc0f47286788c98c535b4<br/><strong class="lr hu">Input 1 sequence</strong>: feffffff<br/><strong class="lr hu">Output Count: </strong>02<br/><strong class="lr hu">Output 1 Value: </strong>00e1f50500000000<!-- --> (100M satoshis / 1 BTC)<br/><strong class="lr hu">Output 1 public key script length: </strong>0x17 (23 bytes)<br/><strong class="lr hu">Output 1 public key script</strong>: <!-- -->a914a860f76561c85551594c18eecceffaee8c4822d787<br/><strong class="lr hu">Output 2 Value</strong>: <!-- -->F0C1A43500000000<!-- --> (899990000 sats / 8.9999 BTC)<br/><strong class="lr hu">Output 2 public key script length</strong>: 0x17 (23 bytes)<br/><strong class="lr hu">Output 2 public key script</strong>: <!-- -->a914d8b6fcc85a383261df05423ddf068a8987bf028787<br/><strong class="lr hu">Witness Count:</strong> 02<br/><strong class="lr hu">Witness 1 length:</strong> 0x47 (71 bytes)<br/><strong class="lr hu">Witness 1: </strong>30440220434caf5bb442cb6a251e8bce0ec493f9a1a9c4423bcfc029e542b0e8a89d1b3f022011090d4e98f79c62b188245a4aa4eb77e912bfd57e0a9b9a1c5e65f2b39f3ab401<br/><strong class="lr hu">Witness 2 length:</strong> 0x21 (33 bytes)<strong class="lr hu"><br/>Witness 2: </strong>0223bec70d670d29a30d9bcee197910e37cf2a10f0dc3c5ac44d865aec0d7052fb<br/><strong class="lr hu">Locktime:</strong> 8c000000 (block 140)</span></pre><p id="7bd3" class="pw-post-body-paragraph kk kl ht km b kn lj kp kq kr lk kt ku kv ll kx ky kz lm lb lc ld ln lf lg lh hm dt translated">如果你喜欢这篇文章，可以看看我关于如何<a class="ae li" href="https://www.udemy.com/course/create-your-own-blockchain/" rel="noopener ugc nofollow" target="_blank">成为比特币+区块链程序员</a>的课程。</p><blockquote class="lz"><p id="869b" class="ma mb ht bd mc md oc od oe of og lh ek translated">加入Coinmonks <a class="ae li" href="https://t.me/coincodecap" rel="noopener ugc nofollow" target="_blank">电报频道</a>和<a class="ae li" href="https://www.youtube.com/c/coinmonks/videos" rel="noopener ugc nofollow" target="_blank"> Youtube频道</a>获取每日<a class="ae li" href="http://coincodecap.com/" rel="noopener ugc nofollow" target="_blank">加密新闻</a></p></blockquote><h2 id="15d6" class="mw jn ht bd jo nf oh nh js ni oi nk jw kv oj nm ka kz ok no ke ld ol nq ki nr dt translated">另外，阅读</h2><ul class=""><li id="20fb" class="nt nu ht km b kn ko kr ks kv om kz on ld oo lh op nz oa ob dt translated"><a class="ae li" rel="noopener" href="/coinmonks/top-10-crypto-copy-trading-platforms-for-beginners-d0c37c7d698c">复制交易</a> | <a class="ae li" rel="noopener" href="/coinmonks/crypto-tax-software-ed4b4810e338">加密税务软件</a></li><li id="723e" class="nt nu ht km b kn oq kr or kv os kz ot ld ou lh op nz oa ob dt translated"><a class="ae li" href="https://coincodecap.com/grid-trading" rel="noopener ugc nofollow" target="_blank">电网交易</a> | <a class="ae li" rel="noopener" href="/coinmonks/the-best-cryptocurrency-hardware-wallets-of-2020-e28b1c124069">加密硬件钱包</a></li><li id="f33b" class="nt nu ht km b kn oq kr or kv os kz ot ld ou lh op nz oa ob dt translated"><a class="ae li" rel="noopener" href="/coinmonks/crypto-exchange-dd2f9d6f3769">最佳加密交易所</a> | <a class="ae li" rel="noopener" href="/coinmonks/bitcoin-exchange-in-india-7f1fe79715c9">印度最佳加密交易所</a></li><li id="47a8" class="nt nu ht km b kn oq kr or kv os kz ot ld ou lh op nz oa ob dt translated"><a class="ae li" rel="noopener" href="/coinmonks/best-crypto-apis-for-developers-5efe3a597a9f">面向开发人员的最佳加密API</a></li><li id="f1dd" class="nt nu ht km b kn oq kr or kv os kz ot ld ou lh op nz oa ob dt translated"><a class="ae li" href="http://Top 4 Telegram Channels for Crypto Traders" rel="noopener ugc nofollow" target="_blank">密码电报信号</a> | <a class="ae li" rel="noopener" href="/coinmonks/crypto-trading-bot-c2ffce8acb2a">密码交易机器人</a></li><li id="b359" class="nt nu ht km b kn oq kr or kv os kz ot ld ou lh op nz oa ob dt translated">最佳<a class="ae li" rel="noopener" href="/coinmonks/top-5-crypto-lending-platforms-in-2020-that-you-need-to-know-a1b675cec3fa">密码借贷平台</a></li><li id="9487" class="nt nu ht km b kn oq kr or kv os kz ot ld ou lh op nz oa ob dt translated">杠杆代币的终极指南</li><li id="95d1" class="nt nu ht km b kn oq kr or kv os kz ot ld ou lh op nz oa ob dt translated"><a class="ae li" href="https://coincodecap.com/best-vpns-for-crypto-trading" rel="noopener ugc nofollow" target="_blank">加密交易的最佳VPN</a></li><li id="918f" class="nt nu ht km b kn oq kr or kv os kz ot ld ou lh op nz oa ob dt translated"><a class="ae li" href="https://coincodecap.com/huobi-crypto-trading-signals" rel="noopener ugc nofollow" target="_blank">火币的加密交易信号</a> | <a class="ae li" rel="noopener" href="/coinmonks/hitbtc-review-c5143c5d53c2"> HitBTC审查</a></li><li id="58f1" class="nt nu ht km b kn oq kr or kv os kz ot ld ou lh op nz oa ob dt translated"><a class="ae li" href="https://coincodecap.com/traderwagon-review" rel="noopener ugc nofollow" target="_blank"> TraderWagon回顾</a> | <a class="ae li" href="https://coincodecap.com/kraken-vs-gemini-vs-bityard" rel="noopener ugc nofollow" target="_blank">北海巨妖vs双子座vs BitYard </a></li><li id="ad10" class="nt nu ht km b kn oq kr or kv os kz ot ld ou lh op nz oa ob dt translated"><a class="ae li" href="https://coincodecap.com/ftx-futures-trading" rel="noopener ugc nofollow" target="_blank">如何在FTX交易所交易期货</a></li><li id="71f4" class="nt nu ht km b kn oq kr or kv os kz ot ld ou lh op nz oa ob dt translated"><a class="ae li" href="https://coincodecap.com/okex-kucoin" rel="noopener ugc nofollow" target="_blank"> OKEx vs KuCoin </a> | <a class="ae li" href="https://coincodecap.com/celsius-alternatives" rel="noopener ugc nofollow" target="_blank">摄氏替代品</a> | <a class="ae li" href="https://coincodecap.com/buy-vechain" rel="noopener ugc nofollow" target="_blank">如何购买VeChain </a></li><li id="e6a8" class="nt nu ht km b kn oq kr or kv os kz ot ld ou lh op nz oa ob dt translated"><a class="ae li" href="https://coincodecap.com/3commas-vs-pionex-vs-cryptohopper" rel="noopener ugc nofollow" target="_blank">3 commas vs . Pionex vs . crypto hopper</a></li><li id="0539" class="nt nu ht km b kn oq kr or kv os kz ot ld ou lh op nz oa ob dt translated"><a class="ae li" href="https://coincodecap.com/cornix-trading-bot" rel="noopener ugc nofollow" target="_blank">如何使用Cornix交易机器人</a></li><li id="7ed0" class="nt nu ht km b kn oq kr or kv os kz ot ld ou lh op nz oa ob dt translated"><a class="ae li" href="https://coincodecap.com/bitget-review" rel="noopener ugc nofollow" target="_blank"> Bitget回顾</a> | <a class="ae li" href="https://coincodecap.com/gemini-vs-blockfi" rel="noopener ugc nofollow" target="_blank">双子座vs BlockFi </a> cmd| <a class="ae li" href="https://coincodecap.com/okex-futures-trading" rel="noopener ugc nofollow" target="_blank"> OKEx期货交易</a></li><li id="60b3" class="nt nu ht km b kn oq kr or kv os kz ot ld ou lh op nz oa ob dt translated"><a class="ae li" href="https://coincodecap.com/buy-crypto-with-credit-card" rel="noopener ugc nofollow" target="_blank">用信用卡购买密码的10个最佳地点</a></li></ul></div></div>    
</body>
</html>